{
  "_format": "hh-sol-artifact-1",
  "contractName": "ForwarderFactory",
  "sourceName": "contracts/ForwarderFactory.sol",
  "abi": [
    {
      "inputs": [
        {
          "internalType": "address",
          "name": "_motherWallet",
          "type": "address"
        },
        {
          "internalType": "address",
          "name": "_relayer",
          "type": "address"
        }
      ],
      "stateMutability": "nonpayable",
      "type": "constructor"
    },
    {
      "inputs": [],
      "name": "FailedDeployment",
      "type": "error"
    },
    {
      "inputs": [
        {
          "internalType": "uint256",
          "name": "balance",
          "type": "uint256"
        },
        {
          "internalType": "uint256",
          "name": "needed",
          "type": "uint256"
        }
      ],
      "name": "InsufficientBalance",
      "type": "error"
    },
    {
      "anonymous": false,
      "inputs": [
        {
          "indexed": true,
          "internalType": "uint256",
          "name": "userId",
          "type": "uint256"
        },
        {
          "indexed": false,
          "internalType": "address",
          "name": "token",
          "type": "address"
        },
        {
          "indexed": false,
          "internalType": "address",
          "name": "to",
          "type": "address"
        }
      ],
      "name": "EmergencyWithdraw",
      "type": "event"
    },
    {
      "anonymous": false,
      "inputs": [
        {
          "indexed": false,
          "internalType": "address",
          "name": "cancelledAddress",
          "type": "address"
        }
      ],
      "name": "MotherWalletChangeCancelled",
      "type": "event"
    },
    {
      "anonymous": false,
      "inputs": [
        {
          "indexed": false,
          "internalType": "address",
          "name": "newMotherWallet",
          "type": "address"
        },
        {
          "indexed": false,
          "internalType": "uint256",
          "name": "unlockTime",
          "type": "uint256"
        }
      ],
      "name": "MotherWalletChangeRequested",
      "type": "event"
    },
    {
      "anonymous": false,
      "inputs": [
        {
          "indexed": false,
          "internalType": "address",
          "name": "oldMotherWallet",
          "type": "address"
        },
        {
          "indexed": false,
          "internalType": "address",
          "name": "newMotherWallet",
          "type": "address"
        }
      ],
      "name": "MotherWalletUpdated",
      "type": "event"
    },
    {
      "anonymous": false,
      "inputs": [
        {
          "indexed": true,
          "internalType": "address",
          "name": "cancelledPendingOwner",
          "type": "address"
        }
      ],
      "name": "OwnershipTransferCancelled",
      "type": "event"
    },
    {
      "anonymous": false,
      "inputs": [
        {
          "indexed": true,
          "internalType": "address",
          "name": "currentOwner",
          "type": "address"
        },
        {
          "indexed": true,
          "internalType": "address",
          "name": "pendingOwner",
          "type": "address"
        }
      ],
      "name": "OwnershipTransferStarted",
      "type": "event"
    },
    {
      "anonymous": false,
      "inputs": [
        {
          "indexed": true,
          "internalType": "address",
          "name": "oldOwner",
          "type": "address"
        },
        {
          "indexed": true,
          "internalType": "address",
          "name": "newOwner",
          "type": "address"
        }
      ],
      "name": "OwnershipTransferred",
      "type": "event"
    },
    {
      "anonymous": false,
      "inputs": [
        {
          "indexed": false,
          "internalType": "address",
          "name": "oldRelayer",
          "type": "address"
        },
        {
          "indexed": false,
          "internalType": "address",
          "name": "newRelayer",
          "type": "address"
        }
      ],
      "name": "RelayerUpdated",
      "type": "event"
    },
    {
      "anonymous": false,
      "inputs": [
        {
          "indexed": true,
          "internalType": "uint256",
          "name": "userId",
          "type": "uint256"
        },
        {
          "indexed": false,
          "internalType": "address",
          "name": "wallet",
          "type": "address"
        }
      ],
      "name": "WalletDeployed",
      "type": "event"
    },
    {
      "inputs": [],
      "name": "TIMELOCK_DELAY",
      "outputs": [
        {
          "internalType": "uint256",
          "name": "",
          "type": "uint256"
        }
      ],
      "stateMutability": "view",
      "type": "function"
    },
    {
      "inputs": [],
      "name": "acceptOwnership",
      "outputs": [],
      "stateMutability": "nonpayable",
      "type": "function"
    },
    {
      "inputs": [],
      "name": "applyMotherWalletChange",
      "outputs": [],
      "stateMutability": "nonpayable",
      "type": "function"
    },
    {
      "inputs": [],
      "name": "cancelMotherWalletChange",
      "outputs": [],
      "stateMutability": "nonpayable",
      "type": "function"
    },
    {
      "inputs": [],
      "name": "cancelOwnershipTransfer",
      "outputs": [],
      "stateMutability": "nonpayable",
      "type": "function"
    },
    {
      "inputs": [
        {
          "internalType": "uint256",
          "name": "userId",
          "type": "uint256"
        }
      ],
      "name": "deployAndSweepNative",
      "outputs": [],
      "stateMutability": "nonpayable",
      "type": "function"
    },
    {
      "inputs": [
        {
          "internalType": "uint256",
          "name": "userId",
          "type": "uint256"
        },
        {
          "internalType": "address",
          "name": "token",
          "type": "address"
        }
      ],
      "name": "deployAndSweepToken",
      "outputs": [],
      "stateMutability": "nonpayable",
      "type": "function"
    },
    {
      "inputs": [
        {
          "internalType": "uint256",
          "name": "userId",
          "type": "uint256"
        }
      ],
      "name": "deployWallet",
      "outputs": [
        {
          "internalType": "address",
          "name": "wallet",
          "type": "address"
        }
      ],
      "stateMutability": "nonpayable",
      "type": "function"
    },
    {
      "inputs": [
        {
          "internalType": "uint256",
          "name": "userId",
          "type": "uint256"
        }
      ],
      "name": "emergencyWithdrawNative",
      "outputs": [],
      "stateMutability": "nonpayable",
      "type": "function"
    },
    {
      "inputs": [
        {
          "internalType": "uint256",
          "name": "userId",
          "type": "uint256"
        },
        {
          "internalType": "address",
          "name": "token",
          "type": "address"
        }
      ],
      "name": "emergencyWithdrawToken",
      "outputs": [],
      "stateMutability": "nonpayable",
      "type": "function"
    },
    {
      "inputs": [
        {
          "internalType": "uint256",
          "name": "userId",
          "type": "uint256"
        }
      ],
      "name": "getAddress",
      "outputs": [
        {
          "internalType": "address",
          "name": "",
          "type": "address"
        }
      ],
      "stateMutability": "view",
      "type": "function"
    },
    {
      "inputs": [],
      "name": "implementation",
      "outputs": [
        {
          "internalType": "address",
          "name": "",
          "type": "address"
        }
      ],
      "stateMutability": "view",
      "type": "function"
    },
    {
      "inputs": [],
      "name": "motherWallet",
      "outputs": [
        {
          "internalType": "address",
          "name": "",
          "type": "address"
        }
      ],
      "stateMutability": "view",
      "type": "function"
    },
    {
      "inputs": [],
      "name": "motherWalletUnlockTime",
      "outputs": [
        {
          "internalType": "uint256",
          "name": "",
          "type": "uint256"
        }
      ],
      "stateMutability": "view",
      "type": "function"
    },
    {
      "inputs": [],
      "name": "owner",
      "outputs": [
        {
          "internalType": "address",
          "name": "",
          "type": "address"
        }
      ],
      "stateMutability": "view",
      "type": "function"
    },
    {
      "inputs": [],
      "name": "pendingMotherWallet",
      "outputs": [
        {
          "internalType": "address",
          "name": "",
          "type": "address"
        }
      ],
      "stateMutability": "view",
      "type": "function"
    },
    {
      "inputs": [],
      "name": "pendingOwner",
      "outputs": [
        {
          "internalType": "address",
          "name": "",
          "type": "address"
        }
      ],
      "stateMutability": "view",
      "type": "function"
    },
    {
      "inputs": [],
      "name": "relayer",
      "outputs": [
        {
          "internalType": "address",
          "name": "",
          "type": "address"
        }
      ],
      "stateMutability": "view",
      "type": "function"
    },
    {
      "inputs": [
        {
          "internalType": "address",
          "name": "newMotherWallet",
          "type": "address"
        }
      ],
      "name": "requestMotherWalletChange",
      "outputs": [],
      "stateMutability": "nonpayable",
      "type": "function"
    },
    {
      "inputs": [
        {
          "internalType": "address",
          "name": "newOwner",
          "type": "address"
        }
      ],
      "name": "transferOwnership",
      "outputs": [],
      "stateMutability": "nonpayable",
      "type": "function"
    },
    {
      "inputs": [
        {
          "internalType": "address",
          "name": "newRelayer",
          "type": "address"
        }
      ],
      "name": "updateRelayer",
      "outputs": [],
      "stateMutability": "nonpayable",
      "type": "function"
    }
  ],
  "bytecode": "0x60a06040523480156200001157600080fd5b5060405162002150380380620021508339810160408190526200003491620001a0565b6001600160a01b038216620000905760405162461bcd60e51b815260206004820152601b60248201527f466163746f72793a207a65726f206d6f746865722077616c6c6574000000000060448201526064015b60405180910390fd5b6001600160a01b038116620000e85760405162461bcd60e51b815260206004820152601560248201527f466163746f72793a207a65726f2072656c617965720000000000000000000000604482015260640162000087565b60028054336001600160a01b0319918216179091556000805482166001600160a01b0385811691909117909155600180549092169083161790556040513090620001329062000175565b6001600160a01b039091168152602001604051809103906000f0801580156200015f573d6000803e3d6000fd5b506001600160a01b031660805250620001d89050565b610e5980620012f783390190565b80516001600160a01b03811681146200019b57600080fd5b919050565b60008060408385031215620001b457600080fd5b620001bf8362000183565b9150620001cf6020840162000183565b90509250929050565b6080516110e062000217600039600081816101dd015281816103070152818161070101528181610983015281816109c80152610d5901526110e06000f3fe608060405234801561001057600080fd5b50600436106101375760003560e01c80636b51e5f8116100b8578063acdd9c341161007c578063acdd9c341461025b578063b28cd15d1461026e578063b93f9b0a14610281578063e30c397814610294578063ef2c20ea146102a7578063f2fde38b146102ba57600080fd5b80636b51e5f81461020757806379ba50971461021a5780638406c079146102225780638da5cb5b146102355780638f83ab131461024857600080fd5b806349615ed5116100ff57806349615ed5146101b35780635ba1c1a9146101bb5780635c580525146101c55780635c60da1b146101d8578063605c87f7146101ff57600080fd5b80630f6835b81461013c578063143dacc51461015157806323452b9c146101815780632eff31541461018957806345fe0bba146101a0575b600080fd5b61014f61014a366004610fb8565b6102cd565b005b600054610164906001600160a01b031681565b6040516001600160a01b0390911681526020015b60405180910390f35b61014f61042f565b61019260055481565b604051908152602001610178565b61014f6101ae366004610fb8565b6104fd565b61014f61058b565b6101926202a30081565b61014f6101d3366004610fe8565b6106d0565b6101647f000000000000000000000000000000000000000000000000000000000000000081565b61014f61087a565b610164610215366004610fb8565b61094f565b61014f610a3d565b600154610164906001600160a01b031681565b600254610164906001600160a01b031681565b61014f610256366004611014565b610af4565b61014f610269366004611014565b610bd5565b61014f61027c366004610fe8565b610cba565b61016461028f366004610fb8565b610d52565b600354610164906001600160a01b031681565b600454610164906001600160a01b031681565b61014f6102c8366004611014565b610d87565b6002546001600160a01b031633146103005760405162461bcd60e51b81526004016102f79061102f565b60405180910390fd5b60006103347f000000000000000000000000000000000000000000000000000000000000000061032f84610ea6565b610ed8565b90506000816001600160a01b03163b116103905760405162461bcd60e51b815260206004820152601c60248201527f466163746f72793a2077616c6c6574206e6f74206465706c6f7965640000000060448201526064016102f7565b806001600160a01b03166307eb21356040518163ffffffff1660e01b8152600401600060405180830381600087803b1580156103cb57600080fd5b505af11580156103df573d6000803e3d6000fd5b505060008054604080519283526001600160a01b0390911660208301528593507f58a0474a73e7b7720fbdb5229aaf1751e9b5a84f3a65351d2109bb3e01c56fe692500160405180910390a25050565b6002546001600160a01b031633146104595760405162461bcd60e51b81526004016102f79061102f565b6003546001600160a01b03166104b15760405162461bcd60e51b815260206004820152601c60248201527f466163746f72793a206e6f2070656e64696e67207472616e736665720000000060448201526064016102f7565b600380546001600160a01b031981169091556040516001600160a01b039091169081907f48a87225523c5fd46bf3b7da3223e5525f77b8136a962695d701a24699bef8f390600090a250565b6001546001600160a01b031633146105275760405162461bcd60e51b81526004016102f79061105b565b60006105328261094f565b9050806001600160a01b031663ab803a766040518163ffffffff1660e01b8152600401600060405180830381600087803b15801561056f57600080fd5b505af1158015610583573d6000803e3d6000fd5b505050505050565b6002546001600160a01b031633146105b55760405162461bcd60e51b81526004016102f79061102f565b6004546001600160a01b031661060d5760405162461bcd60e51b815260206004820152601a60248201527f466163746f72793a206e6f2070656e64696e67206368616e676500000000000060448201526064016102f7565b60055442101561065f5760405162461bcd60e51b815260206004820152601860248201527f466163746f72793a2074696d656c6f636b20616374697665000000000000000060448201526064016102f7565b60008054600480546001600160a01b038082166001600160a01b031980861682178755909216909255600593909355604080519190921680825260208201939093527f597749dfb1915c8b8175c220c09e6eac12e1d446a88a9a9a942542c508c4f73291015b60405180910390a150565b6002546001600160a01b031633146106fa5760405162461bcd60e51b81526004016102f79061102f565b60006107297f000000000000000000000000000000000000000000000000000000000000000061032f85610ea6565b90506000816001600160a01b03163b116107855760405162461bcd60e51b815260206004820152601c60248201527f466163746f72793a2077616c6c6574206e6f74206465706c6f7965640000000060448201526064016102f7565b6001600160a01b0382166107d15760405162461bcd60e51b81526020600482015260136024820152722330b1ba37b93c9d103d32b937903a37b5b2b760691b60448201526064016102f7565b604051631af0320360e01b81526001600160a01b038381166004830152821690631af0320390602401600060405180830381600087803b15801561081457600080fd5b505af1158015610828573d6000803e3d6000fd5b5050600054604080516001600160a01b03808816825290921660208301528693507f58a0474a73e7b7720fbdb5229aaf1751e9b5a84f3a65351d2109bb3e01c56fe692500160405180910390a2505050565b6002546001600160a01b031633146108a45760405162461bcd60e51b81526004016102f79061102f565b6004546001600160a01b03166108fc5760405162461bcd60e51b815260206004820152601a60248201527f466163746f72793a206e6f2070656e64696e67206368616e676500000000000060448201526064016102f7565b600480546001600160a01b0319811690915560006005556040516001600160a01b03909116808252907fa78519000a9d055df5de0e914d2ae5400f3a818c150027bd19f20a9025548ced906020016106c5565b6001546000906001600160a01b0316331461097c5760405162461bcd60e51b81526004016102f79061105b565b60006109ab7f000000000000000000000000000000000000000000000000000000000000000061032f85610ea6565b90506001600160a01b0381163b156109c35792915050565b6109f57f00000000000000000000000000000000000000000000000000000000000000006109f085610ea6565b610f44565b6040516001600160a01b038216815290925083907f16ff42d8076e0859f1d0b901c85da12f8aa9035ebd0441b211fdb37bc1b12ceb9060200160405180910390a2505b919050565b6003546001600160a01b03163314610a975760405162461bcd60e51b815260206004820152601a60248201527f466163746f72793a206e6f742070656e64696e67206f776e657200000000000060448201526064016102f7565b60028054600380546001600160a01b03198084166001600160a01b038381169182179096559116909155604051929091169182907f8be0079c531659141344cd1fd0a4f28419497f9722a3daafe3b4186f6b6457e090600090a350565b6002546001600160a01b03163314610b1e5760405162461bcd60e51b81526004016102f79061102f565b6001600160a01b038116610b6c5760405162461bcd60e51b81526020600482015260156024820152742330b1ba37b93c9d103d32b937903932b630bcb2b960591b60448201526064016102f7565b600154604080516001600160a01b03928316815291831660208301527f605ca4e43489fb38b91aa63dd9147cd3847957694b080b9285ec898b34269f0c910160405180910390a1600180546001600160a01b0319166001600160a01b0392909216919091179055565b6002546001600160a01b03163314610bff5760405162461bcd60e51b81526004016102f79061102f565b6001600160a01b038116610c4d5760405162461bcd60e51b8152602060048201526015602482015274466163746f72793a207a65726f206164647265737360581b60448201526064016102f7565b600480546001600160a01b0319166001600160a01b038316179055610c756202a30042611089565b6005819055604080516001600160a01b038416815260208101929092527f59c638db8d249073c05793638435e456f575c60c7a5bff4fde7f3967773e480791016106c5565b6001546001600160a01b03163314610ce45760405162461bcd60e51b81526004016102f79061105b565b6000610cef8361094f565b60405162df0cab60e51b81526001600160a01b03848116600483015291925090821690631be1956090602401600060405180830381600087803b158015610d3557600080fd5b505af1158015610d49573d6000803e3d6000fd5b50505050505050565b6000610d817f000000000000000000000000000000000000000000000000000000000000000061032f84610ea6565b92915050565b6002546001600160a01b03163314610db15760405162461bcd60e51b81526004016102f79061102f565b6001600160a01b038116610dfd5760405162461bcd60e51b81526020600482015260136024820152722330b1ba37b93c9d103d32b9379037bbb732b960691b60448201526064016102f7565b6002546001600160a01b0390811690821603610e545760405162461bcd60e51b81526020600482015260166024820152752330b1ba37b93c9d1030b63932b0b23c9037bbb732b960511b60448201526064016102f7565b600380546001600160a01b0319166001600160a01b03838116918217909255600254604051919216907f38d16b8cac22d99fc7c124b9cd0de2d3fa1faef420bfe791d8c362d765e2270090600090a350565b600081604051602001610ebb91815260200190565b604051602081830303815290604052805190602001209050919050565b6040513060388201526f5af43d82803e903d91602b57fd5bf3ff602482015260148101839052733d602d80600a3d3981f3363d3d373d3d3d363d738152605881018290526037600c820120607882015260556043909101206000906001600160a01b03165b9392505050565b6000610f3d83838380763d602d80600a3d3981f3363d3d373d3d3d363d730000008460601b60e81c176000526e5af43d82803e903d91602b57fd5bf38460781b17602052826037600984f590506001600160a01b038116610f3d5760405163b06ebf3d60e01b815260040160405180910390fd5b600060208284031215610fca57600080fd5b5035919050565b80356001600160a01b0381168114610a3857600080fd5b60008060408385031215610ffb57600080fd5b8235915061100b60208401610fd1565b90509250929050565b60006020828403121561102657600080fd5b610f3d82610fd1565b6020808252601290820152712330b1ba37b93c9d103737ba1037bbb732b960711b604082015260600190565b6020808252601490820152732330b1ba37b93c9d103737ba103932b630bcb2b960611b604082015260600190565b80820180821115610d8157634e487b7160e01b600052601160045260246000fdfea26469706673582212203306031c994a07466cd7cb3407fa680541a8cc76fea9a0a78c2e250f86f0fcb264736f6c6343000818003360a060405234801561001057600080fd5b50604051610e59380380610e5983398101604081905261002f916100be565b60017f9b779b17422d0df92223018b32b4d1fa46e071723d6817e2486d003becc55f00556001600160a01b0381166100ad5760405162461bcd60e51b815260206004820152601760248201527f466f727761726465723a207a65726f20666163746f7279000000000000000000604482015260640160405180910390fd5b6001600160a01b03166080526100ee565b6000602082840312156100d057600080fd5b81516001600160a01b03811681146100e757600080fd5b9392505050565b608051610d186101416000396000818161010d0152818161014d01528181610235015281816103d90152818161050a015281816106d2015281816107920152818161093601526109a80152610d186000f3fe60806040526004361061004e5760003560e01c806307eb21351461008f5780631af03203146100a65780631be19560146100c6578063ab803a76146100e6578063c45a0155146100fb57600080fd5b3661008a5760405134815233907f88a5966d370b9919b20f3e2c13ff65706f196a4e32cc2c12bf57088f885258749060200160405180910390a2005b600080fd5b34801561009b57600080fd5b506100a461014b565b005b3480156100b257600080fd5b506100a46100c1366004610c27565b6103d7565b3480156100d257600080fd5b506100a46100e1366004610c27565b6106c7565b3480156100f257600080fd5b506100a461092b565b34801561010757600080fd5b5061012f7f000000000000000000000000000000000000000000000000000000000000000081565b6040516001600160a01b03909116815260200160405180910390f35b7f00000000000000000000000000000000000000000000000000000000000000006001600160a01b0316638da5cb5b6040518163ffffffff1660e01b8152600401602060405180830381865afa1580156101a9573d6000803e3d6000fd5b505050506040513d601f19601f820116820180604052508101906101cd9190610c4b565b6001600160a01b0316336001600160a01b0316146102295760405162461bcd60e51b81526020600482015260146024820152732337b93bb0b93232b91d103737ba1037bbb732b960611b60448201526064015b60405180910390fd5b610231610b26565b60007f00000000000000000000000000000000000000000000000000000000000000006001600160a01b031663143dacc56040518163ffffffff1660e01b8152600401602060405180830381865afa158015610291573d6000803e3d6000fd5b505050506040513d601f19601f820116820180604052508101906102b59190610c4b565b905047806103055760405162461bcd60e51b815260206004820152601e60248201527f466f727761726465723a207a65726f206e61746976652062616c616e636500006044820152606401610220565b6000826001600160a01b03168260405160006040518083038185875af1925050503d8060008114610352576040519150601f19603f3d011682016040523d82523d6000602084013e610357565b606091505b50509050806103785760405162461bcd60e51b815260040161022090610c68565b826001600160a01b03167f0edb8e2e2ee5c951b06e95cb63d5dcd8709eb0b74b0f05a948c213e1a557cc42836040516103b391815260200190565b60405180910390a25050506103d56001600080516020610cc383398151915255565b565b7f00000000000000000000000000000000000000000000000000000000000000006001600160a01b0316638da5cb5b6040518163ffffffff1660e01b8152600401602060405180830381865afa158015610435573d6000803e3d6000fd5b505050506040513d601f19601f820116820180604052508101906104599190610c4b565b6001600160a01b0316336001600160a01b0316146104b05760405162461bcd60e51b81526020600482015260146024820152732337b93bb0b93232b91d103737ba1037bbb732b960611b6044820152606401610220565b6104b8610b26565b6001600160a01b0381166105065760405162461bcd60e51b81526020600482015260156024820152742337b93bb0b93232b91d103d32b937903a37b5b2b760591b6044820152606401610220565b60007f00000000000000000000000000000000000000000000000000000000000000006001600160a01b031663143dacc56040518163ffffffff1660e01b8152600401602060405180830381865afa158015610566573d6000803e3d6000fd5b505050506040513d601f19601f8201168201806040525081019061058a9190610c4b565b6040516370a0823160e01b81523060048201529091506000906001600160a01b038416906370a0823190602401602060405180830381865afa1580156105d4573d6000803e3d6000fd5b505050506040513d601f19601f820116820180604052508101906105f89190610ca9565b90506000811161064a5760405162461bcd60e51b815260206004820152601d60248201527f466f727761726465723a207a65726f20746f6b656e2062616c616e63650000006044820152606401610220565b61065e6001600160a01b0384168383610b42565b816001600160a01b0316836001600160a01b03167fda0612d7ca9ff90ca7143a6021ba8938994f8d045b2834ae585fd07b27ea697c836040516106a391815260200190565b60405180910390a350506106c46001600080516020610cc383398151915255565b50565b336001600160a01b037f000000000000000000000000000000000000000000000000000000000000000016146107385760405162461bcd60e51b8152602060048201526016602482015275466f727761726465723a206e6f7420666163746f727960501b6044820152606401610220565b610740610b26565b6001600160a01b03811661078e5760405162461bcd60e51b81526020600482015260156024820152742337b93bb0b93232b91d103d32b937903a37b5b2b760591b6044820152606401610220565b60007f00000000000000000000000000000000000000000000000000000000000000006001600160a01b031663143dacc56040518163ffffffff1660e01b8152600401602060405180830381865afa1580156107ee573d6000803e3d6000fd5b505050506040513d601f19601f820116820180604052508101906108129190610c4b565b6040516370a0823160e01b81523060048201529091506000906001600160a01b038416906370a0823190602401602060405180830381865afa15801561085c573d6000803e3d6000fd5b505050506040513d601f19601f820116820180604052508101906108809190610ca9565b9050600081116108d25760405162461bcd60e51b815260206004820152601d60248201527f466f727761726465723a207a65726f20746f6b656e2062616c616e63650000006044820152606401610220565b6108e66001600160a01b0384168383610b42565b816001600160a01b0316836001600160a01b03167fc5bb4f57e7ad0a3495a8de73d2ba3d944f066d8daa52336e00a1d22806b7bbc0836040516106a391815260200190565b336001600160a01b037f0000000000000000000000000000000000000000000000000000000000000000161461099c5760405162461bcd60e51b8152602060048201526016602482015275466f727761726465723a206e6f7420666163746f727960501b6044820152606401610220565b6109a4610b26565b60007f00000000000000000000000000000000000000000000000000000000000000006001600160a01b031663143dacc56040518163ffffffff1660e01b8152600401602060405180830381865afa158015610a04573d6000803e3d6000fd5b505050506040513d601f19601f82011682018060405250810190610a289190610c4b565b90504780610a785760405162461bcd60e51b815260206004820152601e60248201527f466f727761726465723a207a65726f206e61746976652062616c616e636500006044820152606401610220565b6000826001600160a01b03168260405160006040518083038185875af1925050503d8060008114610ac5576040519150601f19603f3d011682016040523d82523d6000602084013e610aca565b606091505b5050905080610aeb5760405162461bcd60e51b815260040161022090610c68565b826001600160a01b03167f1aedae30ba52b882825adc6b3ed1febc9a717c20eaca0e2c50fd510e4bdc4cd6836040516103b391815260200190565b610b2e610b7c565b6002600080516020610cc383398151915255565b610b4f8383836001610bac565b610b7757604051635274afe760e01b81526001600160a01b0384166004820152602401610220565b505050565b600080516020610cc3833981519152546002036103d557604051633ee5aeb560e01b815260040160405180910390fd5b60405163a9059cbb60e01b60008181526001600160a01b038616600452602485905291602083604481808b5af192506001600051148316610c06578383151615610bf9573d6000823e3d81fd5b6000873b113d1516831692505b60405250949350505050565b6001600160a01b03811681146106c457600080fd5b600060208284031215610c3957600080fd5b8135610c4481610c12565b9392505050565b600060208284031215610c5d57600080fd5b8151610c4481610c12565b60208082526021908201527f466f727761726465723a206e6174697665207472616e73666572206661696c656040820152601960fa1b606082015260800190565b600060208284031215610cbb57600080fd5b505191905056fe9b779b17422d0df92223018b32b4d1fa46e071723d6817e2486d003becc55f00a2646970667358221220893a88f020be83cc6ae985ec338ba03468163797cdcda99956e52028a568349f64736f6c63430008180033",
  "linkReferences": {},
  "deployedLinkReferences": {}
}